:100000000C942A000C9434000C9434000C943400AA
:100010000C9434000C9434000C9434000C94340090
:100020000C9434000C9434000C9434000C94340080
:100030000C9434000C9434000C9434000C94340070
:100040000C9434000C9434000C9434000C94340060
:100050000C94340011241FBECFE5D8E0DEBFCDBF25
:100060000E9436000C94F9010C94000040E060E01E
:1000700080E00E94E50040E061E080E00E94E50051
:100080000E946B0060E080E00E94CB01C82F61E01D
:1000900080E00E94CB01C11109C0811107C081E03D
:1000A0000E94AD0082E00E94AD00ECCFC13029F487
:1000B000811103C00E94D700E5CFC11105C0813076
:1000C00019F40E94DE00DECFC130E1F68130D1F6B6
:1000D0000E94D000D7CF41E062E082E00E94E500BC
:1000E00041E060E082E00E94E50041E061E082E002
:1000F0000E94E50041E065E082E00E94E50041E009
:1001000066E082E00E94E50041E067E082E00E9454
:10011000E5000895813081F441E062E082E00E94D0
:10012000580141E060E082E00E94580140E061E057
:1001300082E00E9458010895823071F441E065E048
:100140000E94580141E066E082E00E94580140E0D0
:1001500067E082E00E9458010895813081F440E018
:1001600062E082E00E94580140E060E082E00E948C
:10017000580140E061E082E00E9458010895823019
:1001800071F440E065E00E94580140E066E082E0E2
:100190000E94580140E067E082E00E945801089503
:1001A00081E00E948A0082E00E948A00089581E036
:1001B0000E948A0082E00E94AD00089582E00E94C1
:1001C0008A0081E00E94AD000895423008F06FC0BF
:1001D0004130A1F5813089F028F08230C9F08330B8
:1001E00011F108952AB381E090E002C0880F991FB1
:1001F0006A95E2F7822B8ABB089527B381E090E0ED
:1002000002C0880F991F6A95E2F7822B87BB089579
:1002100024B381E090E002C0880F991F6A95E2F74D
:10022000822B84BB089521B381E090E002C0880F47
:10023000991F6A95E2F7822B81BB0895411137C05F
:10024000813091F028F08230D9F0833029F108957F
:100250002AB381E090E002C0880F991F6A95E2F707
:10026000809582238ABB089527B381E090E002C085
:10027000880F991F6A95E2F78095822387BB0895BE
:1002800024B381E090E002C0880F991F6A95E2F7DD
:100290008095822384BB089521B381E090E002C061
:1002A000880F991F6A95E2F78095822381BB089594
:1002B000423008F06FC04130A1F5813089F028F05C
:1002C0008230C9F0833011F108952BB381E090E0C2
:1002D00002C0880F991F6A95E2F7822B8BBB0895A5
:1002E00028B381E090E002C0880F991F6A95E2F779
:1002F000822B88BB089525B381E090E002C0880F6F
:10030000991F6A95E2F7822B85BB089522B381E09D
:1003100090E002C0880F991F6A95E2F7822B82BB9A
:100320000895411137C0813091F028F08230D9F022
:10033000833029F108952BB381E090E002C0880F4B
:10034000991F6A95E2F7809582238BBB089528B3A5
:1003500081E090E002C0880F991F6A95E2F78095CE
:10036000822388BB089525B381E090E002C0880F06
:10037000991F6A95E2F78095822385BB089522B381
:1003800081E090E002C0880F991F6A95E2F780959E
:10039000822382BB0895813079F028F08230A9F061
:1003A0008330E1F024C089B390E002C09595879531
:1003B0006A95E2F78170089586B390E002C0959542
:1003C00087956A95E2F78170089583B390E002C043
:1003D000959587956A95E2F78170089580B390E0CE
:1003E00002C0959587956A95E2F78170089580E03F
:0603F0000895F894FFCF10
:00000001FF
